:020000040800F2
:10000000B0040020494300082D1800082F180008EC
:1000100033180008371800083B18000800000000DB
:100020000000000000000000000000003F18000871
:10003000411800080000000043180008B111000832
:1000400063430008634300086343000863430008F8
:1000500063430008634300086343000863430008E8
:1000600063430008634300086343000863430008D8
:1000700063430008634300086343000863430008C8
:1000800063430008634300086343000863430008B8
:1000900063430008634300086343000863430008A8
:1000A0006343000863430008634300086343000898
:1000B0006343000863430008634300086343000888
:1000C0006343000863430008634300086343000878
:1000D00063430008C71900084518000853180008B2
:1000E0006343000863430008634300086343000858
:1000F0006343000863430008634300086343000848
:100100006343000863430008634300086343000837
:100110006343000863430008634300086343000827
:100120006343000863430008634300086343000817
:10013000DFF810D004F06AF900480047F70E000815
:10014000AFF30080B0040020002101E000BF491C93
:10015000FE4A126842434FF47A73B2FBF3F28A42CA
:10016000F4D8704770B50F21F94802F018FA00244E
:100170002FE00120A04081B2F54802F012FA0025DC
:100180001DE01020A84081B2F14802F0EEF9A0B9BC
:1001900000BF1020A84081B2ED4802F0E6F9002827
:1001A000F7D00120A04081B2E94802F0F8F904EB51
:1001B0004400E8490844405D70BD681CC5B2032D89
:1001C000DFDB0120A04081B2E14802F0E8F9601CC9
:1001D000C4B2042CCDDB0020EEE72DE9F041074648
:1001E0000E46154603F001FD384603F043FDDA489C
:1001F00003F040FD00240DE016F81400012101EB8E
:100200004401715C40EA012807EB4400414603F0D9
:1002100034FE641CB4EB550FEED305F0010040B181
:10022000681E16F80080CC492944481E414603F058
:1002300024FE03F0E6FCBDE8F08170B504462346D9
:1002400000200BE013F8105001F8105033F8105054
:100250002D12012606EB40068D55401CB0EB520FC7
:10026000F0D302F0010525B1550813F81560551EAD
:100270004E5570BD10B504460BE000BF8021B74855
:1002800002F026F80028F9D014F8011BB34801F059
:10029000B1FF20780028F0D110BD10B5044605222A
:1002A000AF49204604F074F808B9012010BD0020C1
:1002B000FCE770B5054600240CE004EB8400A94A75
:1002C00081180522284604F063F808B9012070BDA2
:1002D000601CC4B2A44800788442EEDB0020F6E73C
:1002E00070B505460C4601F0C0FD284601F0AFFD93
:1002F00001F0C0FD204601F0AAFD4FF47A7000F035
:1003000088FF70BDF8B5984800780A2807DB97A0E9
:10031000FFF7B0FFA3A1A7A0FFF7E2FFF8BDA8A0D9
:10032000FFF7A8FFB0A1B1A0FFF7DAFF7EE0B24966
:10033000262001F02AF90646002E76D1AFA0FFF75D
:1003400099FF00240DE0AC48025DB0A1684604F0BE
:100350008FF86846FFF78EFFAEA0FFF78BFF601C9B
:10036000C4B2052CEFDB8EA0FFF784FFA24801F09A
:1003700024F90646002E58D1A7489F490A68026012
:1003800009790171A5A0FFF775FF00240DE0A248CF
:10039000025D9EA1684604F06BF86846FFF76AFFAD
:1003A0009CA0FFF767FF601CC4B2052CEFDB7CA0AC
:1003B000FFF760FF002500240CE004EB8401694A8C
:1003C00088180522944903F0E3FF08B9012505E0E8
:1003D000601CC4B2644800788442EEDB00BF3DB1CB
:1003E00091A0FFF747FF80A198A0FFF779FF1AE0DF
:1003F0005D49097801EB81015A4A881810227E492B
:1004000003F0B4FF58480078401C57490870322266
:1004100054495148FFF7E1FE8FA0FFF72BFF97A14A
:1004200099A0FFF75DFF02E0FFE700BF7FE700BF95
:1004300000BF73E7F8B54C48007838B995A0FFF7CE
:1004400019FF9BA19CA0FFF74BFFF8BD9E48FFF74B
:1004500011FF65A165A0FFF743FF6EE16649262005
:1004600001F093F80646002E6ED164A0FFF702FF5C
:1004700000240DE06048025D64A1684603F0F8FFC7
:100480006846FFF7F7FE63A0FFF7F4FE601CC4B2F6
:10049000052CEFDB42A0FFF7EDFE574801F08DF889
:1004A0000646002EE0D15C4853490A68026009798B
:1004B00001715AA0FFF7DEFE00240DE05648025DF0
:1004C00052A1684603F0D4FF6846FFF7D3FE51A05F
:1004D000FFF7D0FE601CC4B2052CEFDB30A0FFF7A5
:1004E000C9FE0B2500240FE004EB84011D4A881887
:1004F0000522494903F04CFF20B9254673A0FFF7B8
:10050000B9FE05E0601CC4B2174800788442EBDBFA
:1005100000BF0B2D19D02C460EE004EB84001149CE
:100520000144601C00EB80000E4A104402680A601F
:1005300000790871601CC4B20B480078401EA042CC
:10054000EBDC09480078D3E0F6E0ECE05400002052
:10055000000801401D00002000FC01080038014097
:1005600012000020780000201700002043616E6E0A
:100570006F7420616464206D6F7265206D656D62BB
:1005800065722063617264732E204D6178696D75A8
:100590006D206C696D697420726561636865642E95
:1005A0000A0000004B686F6E6720746865207468ED
:1005B000656D000046756C6C205468652121210032
:1005C000506C656173652070726573656E7420741C
:1005D0006865206E6577206D656D62657220636168
:1005E00072642E2E2E0A0000000000004475612067
:1005F0005468652076616F00680000204361726472
:100600002064657465637465643A2000253032584F
:1006100000000000200000000D0000204361726413
:100620002049443A2000000054686973206D656DCC
:10063000626572206361726420697320616C726507
:100640006164792061646465642E0A0054686520E1
:100650006461207468656D004D656D62657220632C
:10066000617264206164646564207375636365739B
:100670007366756C6C792E0A000000005468616E18
:100680006820436F6E6700005468656D207468656C
:10069000000000004E6F206D656D62657220636121
:1006A00072647320746F2072656D6F76652E0A0018
:1006B000446520786F6100004B686F6E6720636F40
:1006C0002074686500000000184900084D656D62DF
:1006D0006572206361726420666F756E6420737545
:1006E000636365737366756C6C792E0A0000000095
:1006F000401E00EB8000D2490844002101600171D6
:10070000D0480078401ECF4908703222CC49CE48EC
:10071000FFF763FDCDA0FFF7ADFDAFF23411D4A01C
:10072000FFF7DEFD07E0D6A0FFF7A4FDAFF248110A
:10073000DCA0FFF7D5FD01E000BF8FE600BF00BFE2
:1007400083E610B540F6C410DA4908800320FFF7AD
:10075000FBFC01F08AFBD8A001F079FBDAA0FFF7DF
:1007600089FD4FF4FA60FFF7EFFC40F2DC50D1490D
:1007700008800520FFF7E8FCD5A0FFF77BFD10BD42
:1007800070B59AB006463046FFF787FD00287DD049
:10079000D1A0FFF76FFDD6A0FFF76CFDC4A1E3A0C9
:1007A000FFF79EFD4FF4FA7000F033FDE2A1E5A0E3
:1007B000FFF796FD7DE0FFF7D5FC0446002C78D0CE
:1007C0002546312D04D0322D05D0332D0FD105E033
:1007D000FFF798FD1EE0FFF72DFE1BE0DDA0FFF701
:1007E00049FDE4A1E5A0FFF77BFD1AB070BD2A46E4
:1007F000E6A1684603F03CFE6846FFF73BFDE4A037
:10080000FFF738FDEDA0FFF735FDF2A1F4A0FFF7EB
:1008100067FDEAE700BFF6A0FFF72CFD0020FB49CB
:10082000086039E0FAA0FFF725FDF8480268521C7D
:10083000F9A119A803F01CFE19A8FFF71BFD002061
:10084000F749086019E0F148006800EB80007C4936
:100850000844F3490968425CAFF2502119A803F03B
:1008600007FE19A8FFF706FDAFF25820FFF702FDBB
:10087000EB480068401CEA490860E9480068052820
:10088000E1D3AFF2E420FFF7F5FC00E012E0DF482F
:100890000068401CDD490860DC4800686949097847
:1008A0008842BFD392A0FFF7E5FCA3A1A5A0FFF764
:1008B00017FD80E73046FFF7FCFC40B1D9A0FFF7F9
:1008C000D9FCFFF73EFFD9A0FFF7D4FC0DE078A1DB
:1008D000D8A0FFF705FDDBA0FFF7CCFC4FF47A7042
:1008E00000F097FCDAA0FFF7C5FC00BF7DE710B56C
:1008F0008EB0322201A95448FFF79FFC322201A991
:100900004F4803F033FD00204E49087000240FE0EB
:1009100004EB84014A4A88180522D0A103F038FD6F
:1009200020B148480078401C46490870601CC4B299
:100930000A2CEDDB0EB010BD10B502460B460021AF
:1009400000BF07E0505C5C5CA04201D0002010BDFD
:10095000481CC1B20429F5DB0120F8E7024600215A
:1009600000BF06E0505C2A2801D000207047481CD8
:10097000C1B20429F6DB0120F8E72DE9FF4100268A
:1009800000240127B7A0FFF775FC49A1B9A0FFF724
:10099000A7FC00BF16E0FFF7E5FB05460DB9641E96
:1009A0000FE02A46B7A1684603F062FD6846FFF7EC
:1009B00061FC03A805552A2001F034FAC82000F094
:1009C00028FC641C042CE6DBA9A0FFF753FCAE490D
:1009D00003A8FFF7B1FF00282FD066A1ABA0FFF757
:1009E0007FFCAEA0FFF746FC00241CE0FFF7BAFB3B
:1009F00005460DB9641E15E0232D01D02A2D01D125
:100A0000012612E002A805552A469EA1684603F079
:100A10002FFD6846FFF72EFC284601F003FAC82098
:100A200000F0F7FB641C042CE0DB00BF002E05D1B6
:100A30008FA0FFF71FFC1EA138E18BE17AE10000D7
:100A4000780000201700002000FC01084D656D6251
:100A5000657220636172642072656D6F76656420D3
:100A60007375636365737366756C6C792E0A000029
:100A7000586F61205468616E6820436F6E67000094
:100A80004D656D6265722063617264206E6F7420C3
:100A9000666F756E6420696E20746865206C69737A
:100AA000742E0A005468652063687561206C757542
:100AB00000000000342C01402020204F50454E20E3
:100AC000444F4F52000000004F50454E210A000095
:100AD000434C4F53450A00004D61737465722043C7
:100AE000617264206465746563746564210A000042
:100AF000312E205468656D207468650A20322E20DE
:100B0000586F61207468650A20332E2054686F6125
:100B1000740A2043686F6E2074752063686F6E20BE
:100B200028312F322F33293A200A00004D61737487
:100B30006572204361726400332E2054686F6174C3
:100B400000000000312E5468656D2020322E586F51
:100B50006120000054686F6174206B686F692063C6
:100B6000686520646F207175616E206C79207468EF
:100B7000652E0A00506173733A0000002057656CBF
:100B8000636F6D6520486F6D65000000256400008F
:100B90004C75612063686F6E206B686F6E672068AC
:100BA0006F70206C652E20567569206C6F6E672003
:100BB00063686F6E206C61692E0A000043686F6E77
:100BC0002074752063686F6E2028312F322F3329EF
:100BD0003A0A000043686F6E20312F322F33000035
:100BE0004B686F6E6720686F70206C6500000000B6
:100BF00044616E682073616368207468652074685E
:100C0000616E68207669656E3A0A00000400002073
:100C10005468652000000000253032643A2000004E
:100C2000080000204F70656E210A0000436C6F734E
:100C300065210A0020556E6B6E6F776E20636172BE
:100C400064000000554E4B4E4F574E0A0000000006
:100C500052656C656173650A0000000000000000C9
:100C6000000000004E68617020506173732063754E
:100C70000A0000004E686170205061737320637534
:100C80003A00000025630000190000204E686170E2
:100C90002050617373206D6F693A00004E68617077
:100CA0002050617373206D6F690A0000F1A0FFF797
:100CB00017FB002417E0FFF755FA05460DB9641E2F
:100CC00010E02A46AFF24401684603F0D1FB6846C3
:100CD000FFF7D0FA01A80555284601F0A3F8142023
:100CE00000F097FA641C042CE5DB01A902A8FFF7C9
:100CF00023FEB0B1002404E002A8005DE1490855DC
:100D0000641C042CF8DBE0A1E2A0FFF7E9FADBA108
:100D1000E3A0FFF7E5FAAFF2A800FFF7ABFABDE8F2
:100D2000FF81E3A1E6A0FFF7DBFAD4A1DCA0FFF787
:100D3000D7FAF4E7E7A0FFF79DFAEBA1ECA0FFF7E5
:100D4000CFFA4FF4FA7000F064FACCA1D4A0FFF708
:100D5000C7FAE4E7EAA0FFF78DFADDA1ECA0FFF700
:100D6000BFFAC6A1CEA0FFF7BBFA00BFD7E710B508
:100D700001F07BF8EAA001F06AF810BD00B540F67A
:100D8000C410EA4908804FF4FA60FFF7DDF940F239
:100D9000DC50E64908804FF4FA60FFF7D5F900BD52
:100DA00000B589B0012140F6040001F007FE4FF4C0
:100DB0008070ADF8040018208DF8070003208DF82E
:100DC000060001A9DA4801F03DFB44F61F60ADF8CA
:100DD0001C004720ADF818000020ADF81E00ADF84B
:100DE0001A0006A9D148343801F020FF6020ADF880
:100DF00008000120ADF80A000020ADF80C0040F218
:100E0000DC50ADF80E000020ADF81000ADF8120077
:100E1000ADF81400ADF8160002A9C448343801F04A
:100E200042FF0821C148343802F08CFB0121BF4841
:100E3000343802F057FB0121BC48343802F05EFA26
:100E40000121BA48343802F04DFA09B000BD00B5AE
:100E500087B00121084601F0BEFD44F61F60ADF8E1
:100E600014004720ADF810000020ADF81600ADF8D2
:100E7000120004A94FF0804001F0D8FE6020ADF8C8
:100E800000000120ADF8020040F2DC50ADF8060091
:100E90000020ADF8080069464FF0804001F003FFE4
:100EA0000821C80602F04EFB0121880702F01AFB58
:100EB0000121880702F016FA07B000BD08B501212C
:100EC000042001F07BFD0F20ADF8000003208DF819
:100ED000020010208DF803006946954801F0B2FA2F
:100EE0007020ADF8000048208DF803006946904856
:100EF00001F0A8FA08BDC2B000268EA0006841909B
:100F000000BF00F060F900F0AFFC03F09CF9FFF7C0
:100F1000D5FFFFF79CFFFFF743FF00F05DFAFFF7F7
:100F2000E6FC00F03FFF012000F0A9FF53A15CA008
:100F3000FFF7D6F980A0FFF79DF9002409E0834868
:100F4000025D83A101A803F093FA01A8FFF792F9CB
:100F5000641C052CF3D3AFF2E820FFF78BF987E090
:100F6000042E29D1474941A8FFF7E6FC48B17AA0F1
:100F7000FFF780F9FFF7E5FB40A149A0FFF7B0F9C3
:100F800019E041A8FFF7EAFC10B1FFF7F6FC12E008
:100F900075A0FFF76FF94EA177A0FFF7A1F94FF405
:100FA0007A7000F036F9AFF25830FFF763F933A1E9
:100FB0003BA0FFF795F90026FFF7D4F805462DB1C1
:100FC00041A885552A2000F02DFF761C6D4926206A
:100FD00000F0DBFA6C49087008460078002847D119
:100FE0000026AFF6E810FFF745F900240DE065484C
:100FF000025DAFF6E81101A803F03AFA01A8FFF785
:1010000039F954A0FFF736F9641C052CEFD359A029
:10101000FFF730F95B4800F0D0FA5B4908700846EA
:101020000078002824D1594856490A680260097995
:101030000171FFF7A5FBAFF61C20FFF71BF9002499
:101040000DE05248025DAFF63C2101A803F010FA12
:1010500001A8FFF70FF93FA0FFF70CF9641C052C5E
:10106000EFD344A0FFF706F904A10DA0FFF738F96C
:1010700076E70000436F6E6669726D20506173738E
:101080003A00000019000020205468616E68206357
:101090006F6E67002020446F6920506173730000F9
:1010A000202057656C636F6D6520486F6D6500008B
:1010B000446F692050617373204661696C000000C1
:1010C00053616920436F6E6669726D20506173735E
:1010D0000000000054686F617420646F69206D61C6
:1010E00074206B6861750A00757365202A202300DF
:1010F0004552524F523A2050617373206E6F740004
:101100000A536169206D6174206B6861750A000083
:101110002057726F6E672050617373576F7264004F
:1011200020204F50454E20444F4F5200342C014058
:1011300000080140303030314D61737465722043D6
:101140006172642049443A2000000000120000202F
:1011500025303258200000000A4D6174206B686110
:10116000752064756E670A004D4154204B48415507
:10117000205341490A0000002057726F6E672050CB
:1011800061737300680000200C0000200D00002037
:1011900010B5002807DA0A07140E304A00F00F03D2
:1011A0001B1FD45403E00A07130E2D4A135410BD1D
:1011B0002C480068401C2B4908602B480068401CE4
:1011C00029490860704710B5284800682849B0FBD5
:1011D000F1F4B4F1807F01D3012011E024F07F40CD
:1011E000401E4FF0E02148610F214FF0FF30FFF724
:1011F000CFFF00204FF0E021886107200861002028
:1012000008B100BFFEE70F214FF0FF30FFF7C0FF2E
:1012100010BD0021134A116000BF00EB4001C1EB7B
:10122000C011104A1268B2EBC10FF6D3704700210B
:101230000C4A116000BF0B4909688142FBD370471B
:101240000020094908607047074800684FF47A7128
:10125000B0FBF1F0704704480068704718ED00E0FB
:1012600000E400E02C0000203000002054000020AA
:1012700040420F0010B5044600BF0221FA4802F0B8
:101280005EFC0028F9D02146F74802F005FC00BFBB
:101290000121F54802F053FC0028F9D0F24802F091
:1012A000FDFBC0B210BD70B504460D464FF4805131
:1012B000EE4801F076F97E2101EA4400FFF7DAFFFB
:1012C0002846FFF7D7FF4FF48051E84801F067F94F
:1012D00070BD70B504464FF48051E44801F061F9E7
:1012E0007E2101EA440141F08000FFF7C3FF0020A6
:1012F000FFF7C0FF05464FF48051DC4801F04FF97D
:10130000284670BD70B505460C462846FFF7E1FF3C
:10131000064646EA04012846FFF7C5FF70BD70B5D2
:1013200005460C462846FFF7D4FF064626EA040188
:101330002846FFF7B8FF70BD10B51420FFF7C9FFAE
:10134000044603211420FFF7DDFF10BD10B5032173
:101350001420FFF7E4FF10BD10B50F210120FFF7A7
:10136000A2FF10BD00B587B00121082001F026FBC7
:101370000121880301F02FFB4FF46040ADF8180005
:1013800018208DF81B0003208DF81A0006A9B74815
:1013900001F058F83820ADF810000020ADF8040036
:1013A0004FF48270ADF806000020ADF80800ADF8EB
:1013B0000A00ADF80C004FF40070ADF80E000020EC
:1013C000ADF8120001A9A84802F090FA0121A64840
:1013D00002F031FB07B000BD08B50121092001F082
:1013E000EDFA0121880301F0F6FA4FF48050ADF8D0
:1013F000000003208DF8020010208DF803006946DC
:101400009A4801F01FF84FF40060ADF800006946FB
:10141000964801F017F84FF48051944801F0BFF856
:101420004FF40061914801F0BAF8FFF79BFFFFF716
:1014300093FF8D212A20FFF736FF3E212B20FFF757
:1014400032FF1E212D20FFF72EFF00212C20FFF759
:101450002AFF40211520FFF726FF3D211120FFF72D
:1014600022FFFFF769FF08BD2DE9FE4F06468846BB
:1014700091469A46DDF830B002200290002001909B
:1014800000900C2E06D00E2E09D1122001901020B3
:10149000009005E0772001903020009000E000BF30
:1014A00000BF019840F080010220FFF7FCFE802180
:1014B0000420FFF734FF80210A20FFF723FF0021DB
:1014C0000120FFF7F0FE002505E018F805100920BF
:1014D000FFF7E9FE6D1C4D45F7D331460120FFF7BC
:1014E000E2FE0C2E03D180210D20FFF70BFF4FF4FD
:1014F000FA6500BF0420FFF7ECFE04466D1E35B10F
:1015000004F0010018B9009820400028F2D0802192
:101510000D20FFF704FF95B30620FFF7DAFE00F079
:101520001B0068BB002002900198204000F00100E1
:1015300008B1012002900C2E24D10A20FFF7C9FE29
:1015400004460C20FFF7C5FE00F007072FB1601E10
:1015500007EBC000CBF8000002E0E000CBF8000091
:1015600004B90124102C00DD1024002505E0092019
:10157000FFF7AFFE0AF805006D1CA542F7D301E0A6
:10158000022002900298BDE8FE8F7CB506460C460C
:1015900007210D20FFF787FE267001A823460122B0
:1015A000214600900C20FFF75FFF054615B9019812
:1015B000102800D0022528467CBD2DE9FC410446B8
:1015C000002700210D20FFF76EFE932020702020C1
:1015D000607001A823460222214600900C20FFF7EC
:1015E00043FF06465EB9002503E0605D4740681C86
:1015F000C5B2042DF9DB605DB84200D0022630464A
:10160000BDE8FC812DE9F0410746884615460421D6
:101610000520FFF784FE80210A20FFF773FE0024D7
:1016200005E0395D0920FFF73EFE601CC4B2444569
:10163000F7DB03210120FFF736FEFF2400BF052062
:10164000FFF747FE0646601EC4B21CB106F0040058
:101650000028F4D02220FFF73CFE28702120FFF75D
:1016600038FE6870BDE8F08100380040000C014091
:10167000F0B585B0074693208DF8040070208DF8F2
:101680000500002405E0395D01AAA01C1154601C6E
:10169000C4B2052CF7DB0DF10B02072101A8FFF7FF
:1016A000B1FF04A801AB092201A900900C20FFF7AB
:1016B000DBFE05462DB90498182802D19DF8046078
:1016C00000E00026304605B0F0BD2DE9F04385B0BE
:1016D00006460F46904699468DF804608DF80570D1
:1016E000002406E018F8041001AAA01C1154601C84
:1016F000C4B2062CF6DB002407E019F8041001AA96
:1017000004F108001154601CC4B2042CF5DB04A8D9
:1017100001AB0C2201A900900E20FFF7A5FE0546A3
:101720002DB90820FFF7D5FD00F0080000B902250B
:10173000284605B0BDE8F0837CB505460C46302050
:1017400020706570A21C02212046FFF75BFF01A8F4
:1017500023460422214600900C20FFF785FE064612
:1017600016B90198902800D0022630467CBDF0B50D
:1017700087B006460F46A0208DF804008DF805605E
:101780000DF10602022101A8FFF73CFF06A801ABFC
:10179000042201A900900C20FFF766FE054645B91A
:1017A0000698042805D19DF8040000F00F000A28CF
:1017B00000D002250DBB002404E0385D01A90855C6
:1017C000601CC4B2102CF8DB05AA102101A8FFF799
:1017D00019FF06A801AB122201A900900C20FFF707
:1017E00043FE054645B90698042805D19DF8040036
:1017F00000F00F000A2800D00225284607B0F0BDEF
:101800000EB550208DF8040000208DF805000DF174
:101810000602022101A8FFF7F5FE02A801AB04228F
:1018200001A900900C20FFF71FFE0EBD704700BFFE
:10183000FEE700BFFEE700BFFEE700BFFEE7704720
:101840007047704710B540F22551054800F056FD2D
:1018500010BD10B540F22551024800F04FFD10BDFB
:10186000004400400048004000B587B001218803D3
:1018700001F0A4F80121052001F0A0F818208DF84E
:1018800017004FF40070ADF8140003208DF8160017
:1018900005A9584800F0D6FD04208DF81700000275
:1018A000ADF8140005A9534800F0CCFD4FF41650D4
:1018B00001900020ADF80A00ADF80800ADF80C006A
:1018C000ADF810000C20ADF80E0001A94A4800F058
:1018D00098FB012240F22551474800F02AFC2520C0
:1018E0008DF8180001208DF81B0000208DF81900DC
:1018F0008DF81A0006A800F0D8FA01213E4800F041
:101900000CFC07B000BD00B587B00121480401F010
:1019100062F80121052001F051F818208DF81B0014
:101920000420ADF8180003208DF81A0006A93148EC
:1019300000F088FD04208DF81B000820ADF8180089
:1019400006A92C4800F07EFD4FF4165002900020AE
:10195000ADF80E00ADF80C00ADF81000ADF81400B5
:101960000C20ADF8120002A9244800F04AFB012225
:1019700040F22551214800F0DCFB01211F4800F016
:10198000CCFB4FF4E06000F08BFA26208DF80400C9
:1019900000208DF8050001208DF806008DF8070065
:1019A00001A800F082FA07B000BD10B50446214638
:1019B000114800F01FFC00BF80210F4800F088FC98
:1019C0000028F9D010BD10B540F225510A4800F0AA
:1019D00095FC60B1084800F011FC0949088001201D
:1019E0000849087040F22551034800F0B1FC044852
:1019F000008810BD0008014000380140004400404C
:101A0000000000201800002010B5044600214FF00F
:101A1000804001F0FBFE00BF4FF0804001F019FF55
:101A2000A042F9D310BD08B50121082000F0C6FF7F
:101A300014208DF80300C020ADF8000003208DF8BD
:101A4000020069468A4800F0FDFC8021884800F0C9
:101A5000A6FD4021864800F0A2FD08BD10B540213A
:101A6000834800F09CFD0320FFF7CEFF80218048D3
:101A700000F095FD0320FFF7C7FF80217C4800F0B0
:101A800090FD0320FFF7C0FF4021794800F089FD59
:101A90000320FFF7B9FF10BD10B58021744800F096
:101AA00080FD0320FFF7B0FF4021714800F077FD73
:101AB0000320FFF7A9FF80216D4800F070FD03208F
:101AC000FFF7A2FF10BD70B50446002620E004F029
:101AD000800020B18021664800F061FD03E0802194
:101AE000634800F05EFD0320FFF78EFF4021604851
:101AF00000F055FD0520FFF787FF40215C4800F00E
:101B000050FD0220FFF780FF6006040E701CC6B275
:101B1000082EDCDB8021564800F041FD0320FFF752
:101B200073FF4021524800F03AFD0320FFF76CFF9D
:101B300080214F4800F019FD08B1002500E0012583
:101B40000220FFF761FF4021494800F02AFD0520EF
:101B5000FFF75AFF284670BD70B5054680214448FE
:101B600000F01DFD0320FFF74FFF00261BE060067D
:101B7000040E40213E4800F012FD0320FFF744FF11
:101B800080213B4800F0F1FC08B144F00104022040
:101B9000FFF73AFF4021364800F003FD0520FFF72C
:101BA00033FF701CC6B2082EE1DB25B1802130481E
:101BB00000F0F7FC03E080212D4800F0F0FC03204A
:101BC000FFF722FF40212A4800F0E9FC0520FFF73B
:101BD0001BFF4021264800F0E4FC0520FFF714FF1E
:101BE000204670BD2DE9F04107460D461646FFF729
:101BF00035FF3846FFF767FF20B9FFF74DFF00209C
:101C0000BDE8F081002409E0285DFFF75CFF18B90A
:101C1000FFF742FF0020F3E7601CC4B2B442F3DBDD
:101C2000FFF73AFF0120EBE72DE9F04107460D46AB
:101C30001646FFF713FF3846FFF745FF20B9FFF7B9
:101C40002BFF0020BDE8F081002405E00120FFF714
:101C500083FF2855601CC4B2701EA042F6DC002031
:101C6000FFF77AFF2855FFF717FF0120EAE700008A
:101C7000000C014010B500240EE0874800784010A9
:101C8000854908708548005D20B10846007840F01D
:101C900080000870601CC4B2082CEEDB01227E4973
:101CA0004E20FFF79FFF10BD10B5044604F008005A
:101CB00018B101207949C87102E000207749C87144
:101CC00004F0040018B101207449887102E000207A
:101CD0007249887104F0020018B101206F494871FF
:101CE00002E000206D49487104F0010018B10120A4
:101CF0006A49087102E000206849087101206749BB
:101D00008870FFF7B7FF002064498870FFF7B2FFC3
:101D100010BD08B501206149087148718871C8710A
:101D2000FFF7A8FF00205D490870FFF7A3FF01201F
:101D30005A494870FFF79EFF00BF0120574988703D
:101D4000FFF798FF012269464F20FFF76DFF002043
:101D500052498870FFF78EFF012050498870FFF7C5
:101D600089FF00204D498870FFF784FF9DF800002F
:101D700000F008000028E0D108BD10B50446FFF7C8
:101D8000C8FF002045490870FFF774FF0020434951
:101D90004870FFF76FFF2011FFF786FF2046FFF71F
:101DA00083FF10BD10B53220FFF733FAFFF73BFE7B
:101DB000002404E0002039490855601CC4B2082CF6
:101DC000F8DBFFF757FF002034490870FFF752FF98
:101DD000002032494870FFF74DFF0320FFF764FFF2
:101DE0000520FFF716FA0320FFF75EFF0120FFF73B
:101DF00010FA0320FFF758FF0120FFF70AFA02202C
:101E0000FFF752FF0120FFF704FA2820FFF7B5FF84
:101E10000C20FFF7B2FF0E20FFF7AFFF0120FFF706
:101E2000ACFF10BD10B50446FFF773FF01201B493E
:101E30000870FFF71FFF002018494870FFF71AFFCE
:101E40002011FFF731FF2046FFF72EFF10BD10B520
:101E5000044607E0207820B114F8010BFFF7E2FFF9
:101E600000E000E0F6E700BF10BD10B50120FFF76D
:101E700084FF10BD10B5C020FFF77FFF10BD10B567
:101E800004461CB101200549C87002E00020034946
:101E9000C870FFF7EFFE10BD3C00002034000020AA
:101EA00031490143314A1160704770B50021002368
:101EB0000F22C47804B32D4C246804F4E064C4F504
:101EC000E064210AC1F10403CA40447804FA03F132
:101ED0008478144021430901254C0678A1550478E3
:101EE00004F01F050124AC4005786D11AD0005F12B
:101EF000E025C5F8004109E0047804F01F0501243D
:101F0000AC401C4D0678761145F8264070BD1A4A43
:101F10000A400243154B1B1F1A60704739B1134A20
:101F2000121D12680243114B1B1D1A6006E00F4A76
:101F3000121D126882430D4B1B1D1A607047042846
:101F400008D14FF0E021096941F004014FF0E0228F
:101F5000116107E04FF0E021096921F004014FF021
:101F6000E0221161704700000000FA050CED00E06E
:101F700000E400E080E100E080FFFF1F10B50446B0
:101F8000FB48844209D10121880300F031FD002182
:101F90004FF4804000F02CFD32E0F648844209D135
:101FA0000121480400F031FD00214FF4003000F021
:101FB0002CFD25E0F048844209D10121880400F07D
:101FC00024FD00214FF4802000F01FFD18E0EB48B5
:101FD000844209D10121C80400F017FD00214FF40B
:101FE000002000F012FD0BE0E548844208D10121F9
:101FF000080500F00AFD00214FF4801000F005FDF7
:1020000010BD2DE9F04786B005460E460024A246D5
:1020100000BFA1460027B08900B100BF2F462C8A1F
:102020004CF6FF700440F08804432C82AC894EF6D5
:10203000F3100440B0883189084371890843044390
:10204000AC81AC8A4FF6FF400440B0890443AC82B7
:1020500001A800F046FCC648874202D1DDF810A076
:1020600001E0DDF80CA0A88900F4004040B10AEBC3
:10207000CA0000EB0A1031684900B0FBF1F807E034
:102080000AEBCA0000EB0A1031688900B0FBF1F8D6
:102090006420B8FBF0F004012009642101FB1089E1
:1020A000A88900F4004040B1322000EBC900B0FB29
:1020B000F1F000F00700044308E0322000EB0910C3
:1020C0006421B0FBF1F000F00F0004432C8106B056
:1020D000BDE8F0874FF41651016000218180C18076
:1020E00001810C21418100218181704710B5024698
:1020F0000020108A4FF2FF0318400B884C882343BE
:102100008C882343CC8823431843108210BD0021C0
:10211000018041808180C180704721B1828942F471
:102120000052828104E082894DF6FF731A40828159
:102130007047F0B50346002400260025002040F635
:102140006A17B94200D100BF1846C1F3421401F02A
:102150001F06012707FA06F5012C01D10C3004E017
:10216000022C01D1103000E014301AB107682F435F
:10217000076002E00768AF430760F0BD1AB1838AC9
:102180000B43838202E0838A8B4383827047028AF7
:102190004FF6F0731A400282028A0A4302827047A5
:1021A00082894FF2FF731A40828182890A438281B9
:1021B000704721B1828942F00202828104E0828963
:1021C0004FF6FD731A4082817047028A4FF6DF7323
:1021D0001A400282028A0A430282704721B1028AAF
:1021E00042F48042028204E0028A4BF6FF731A40F6
:1021F00002827047C1F308028280704701468888D6
:10220000C0F308007047818941F001018181704766
:10221000028BD2B20283028B42EA01220283704710
:10222000028B02F47F420283028B0A4302837047CF
:1022300021B1828A42F02002828204E0828A4FF633
:10224000DF731A408282704721B1828A42F0100205
:10225000828204E0828A4FF6EF731A4082827047CE
:1022600021B1828A42F00802828204E0828A4FF61B
:10227000F7731A408282704721B1828942F400428A
:10228000828103E08289C2F30E028281704721B10C
:10229000828A42F40062828204E0828A4FF2FF73F3
:1022A0001A4082827047828A4FF6FB731A408282FC
:1022B000828A0A438282704721B1828A42F00202F6
:1022C000828204E0828A4FF6FD731A408282704750
:1022D00002460020B1F5007F00D100BF13880B40FB
:1022E0000BB1012000E00020704701F40072B2F54C
:1022F000007F00D100BFCA430280704770B502461C
:10230000002400230025002040F66A16B14200D1C7
:1023100000BFC1F3421501F01F03012606FA03F3C3
:10232000012D02D19689334006E0022D02D1168A92
:10233000334001E0968A33400C12012606FA04F479
:102340001688344013B10CB1012000E0002070BDAC
:1023500010B50022002340F66A14A14200D100BF4C
:102360000A1201249440A3B2DC43048010BD000093
:10237000003801400044004000480040004C00404C
:102380000050004010B50446CC48844208D10121D9
:10239000042000F02DFB0021042000F029FB46E082
:1023A000C748844208D10121082000F021FB002108
:1023B000082000F01DFB3AE0C248844208D1012108
:1023C000102000F015FB0021102000F011FB2EE082
:1023D000BD48844208D10121202000F009FB0021E2
:1023E000202000F005FB22E0B848844208D10121FA
:1023F000402000F0FDFA0021402000F0F9FA16E03C
:10240000B348844208D10121802000F0F1FA002174
:10241000802000F0EDFA0AE0AE48844207D10121A5
:10242000801500F0E5FA0021A01500F0E1FA10BDDA
:1024300010B50121084600F0DBFA0021012000F070
:10244000D7FA10BD2DE9F0410246002500260020F4
:1024500000230024002791F803C00CF00F0591F829
:1024600003C00CF0100CBCF1000F03D091F802C0B7
:102470004CEA050591F800C0BCF1000F31D014689A
:1024800000202BE04FF0010C0CFA00F3B1F800C073
:102490000CEA03069E4220D183004FF00F0C0CFA89
:1024A00003F7BC4305FA03FC4CEA040491F803C0AB
:1024B000BCF1280F06D14FF0010C0CFA00FCC2F859
:1024C00014C00AE091F803C0BCF1480F05D14FF0E9
:1024D000010C0CFA00FCC2F810C0401C0828D1D333
:1024E0001460B1F800C0BCF1FF0F34DD5468002067
:1024F0002EE000F1080C4FF0010808FA0CF3B1F8D7
:1025000000C00CEA03069E4221D183004FF00F0C5D
:102510000CFA03F7BC4305FA03FC4CEA040491F8F7
:1025200003C0BCF1280F05D100F1080C08FA0CF823
:10253000C2F8148091F803C0BCF1480F07D100F134
:10254000080C4FF0010808FA0CF8C2F81080401C83
:102550000828CED35460BDE8F0814FF6FF710180AA
:10256000022181700421C1707047024600209368E7
:102570000B400BB1012000E0002070470146886845
:1025800080B2704702460020D3680B400BB1012097
:1025900000E0002070470146C86880B270470161C2
:1025A0007047416170470AB1016100E041617047C5
:1025B000C16070474FF480320A4382618161826159
:1025C00082698269704702460020434B18684FF6C3
:1025D0008073184040EA021008433F4B1860704770
:1025E0003E49C8617047F0B50A4600230024002127
:1025F000002500F00046B6F1004F02D1364EF169D9
:1026000001E0354E7168C0F3034583B200F4401613
:10261000B6F5401F08D121F070612F4E766826F084
:1026200070662D4F7E6012E000F48016B6F5801FB4
:1026300006D1032606FA05F4A14341F0706106E0D5
:10264000460D360103FA06F6B14341F0706122B13E
:10265000460D360103FA06F6314300F00046B6F1A6
:10266000004F02D11C4EF16101E01B4E7160F0BDC4
:1026700030B500228B071C0F0F2303FA04F2164B10
:1026800008338C1053F824309343134C08348D10C6
:1026900044F8253023468C1053F824308C07240F3F
:1026A00000FA04F423430C4C08348D1044F8253010
:1026B00030BD0A49DC310860704700000008014065
:1026C000000C0140001001400014014000180140BE
:1026D000001C014000200140000001400000204299
:1026E000DF48006840F00100DD49086008464068A6
:1026F000DC490840DA49486008460068DA49084081
:10270000D74908600846006820F480200860084621
:10271000406820F4FE0048604FF41F008860704756
:10272000CF49096821F48031CD4A1160114609680A
:1027300021F480211160B0F5803F03D0B0F5802FE7
:102740000ED106E0C649096841F48031C44A1160DF
:1027500007E0C349096841F4A021C14A116000E0C3
:1027600000BF00BF704710B50146002200230020C3
:102770004A11012A02D1BA4C236806E0022A02D18A
:10278000B74C236A01E0B64C636A01F01F020124D2
:1027900094401C400CB1012000E0002010BD38B571
:1027A000002000900024002500BF3120FFF7DBFF50
:1027B00005460098401C00900098B0F5A06F01D02D
:1027C000002DF2D03120FFF7CEFF08B1012400E048
:1027D0000024204638BD01460020A14A106820F0A0
:1027E000F80040EAC10010607047A04908607047D7
:1027F000024600209A4B586820F47C1042EA0103FC
:102800001843974B586070479849086670470146CF
:102810000020934A506820F003000843506070473E
:102820008F48406800F00C007047014600208C4A39
:10283000506820F0F00008435060704701460020C7
:10284000874A506820F4E0600843506070470146B2
:102850000020834A506820F4605040EAC100506074
:10286000704729B17E4A527A02437D4B5A7204E086
:102870007B4A527A82437A4B5A7270477B49D831ED
:102880000860704701460020754A506820F44040B7
:102890000843506070470021714A20321170704A1D
:1028A00082F82010012802D004280AD104E0012176
:1028B0006B4A2032117005E00521694A20321170FF
:1028C00000E000BF00BF7047694908607047644975
:1028D000096A0143624A11627047654944390860D8
:1028E000704730B500210022002400235C4D6D6844
:1028F00005F00C0121B1042905D0082923D105E0F8
:102900005C4D056022E05B4D05601FE0544D6D6835
:1029100005F47012524D6D6805F48034022505EB04
:1029200092421CB9544D554305600BE04C4D6D6807
:1029300005F400351DB1504D5543056002E04D4D85
:102940005543056002E04B4D056000BF00BF444D9C
:102950006D6805F0F0010909484D6B5C0568DD40C4
:1029600045603F4D6D6805F4E061090A434D6B5CBD
:102970004568DD4085603A4D6D6805F46051C90ACF
:102980003E4D6B5C4568DD40C560354D6D6805F4B6
:102990004041890B3A4D6B5CC568B5FBF3F50561A9
:1029A00030BD29B12E4A526902432D4B5A6104E0D1
:1029B0002B4A526982432A4B5A61704729B1284AEF
:1029C00092690243264B9A6104E0254A9269824348
:1029D000234B9A61704729B1214AD2690243204BA7
:1029E000DA6104E01E4AD26982431D4BDA61704706
:1029F00029B11B4AD2680243194BDA6004E0184A35
:102A0000D2688243164BDA60704729B1144A1269C2
:102A10000243134B1A6104E0114A12698243104BBE
:102A20001A61704712494039086070470F49C864FD
:102A300070470B49C87170470948406A40F0807080
:102A400007494862704701460020054A92680A40DB
:102A50000AB1012000E000207047014988727047E8
:102A6000001002400000FFF8FFFFF6FE00004242A7
:102A70008004424200127A0000093D003D0000201F
:102A80004D00002010B50446FE48844208D10121C3
:102A9000C014FFF7ADFF0021E014FFF7A9FFC4E069
:102AA000B4F1804F08D101210846FFF7AEFF0021A5
:102AB0000120FFF7AAFFB8E0F348844208D10121C2
:102AC0000220FFF7A2FF00210220FFF79EFFACE0EB
:102AD000EE48844208D101210420FFF796FF00212F
:102AE0000420FFF792FFA0E0E948844208D10121C9
:102AF0000820FFF78AFF00210820FFF786FF94E0F7
:102B0000E448844208D101211020FFF77EFF002114
:102B10001020FFF77AFF88E0DF48844208D10121C6
:102B20002020FFF772FF00212020FFF76EFF7CE0DE
:102B3000DA48844208D101214014FFF759FF0021EF
:102B40006014FFF755FF70E0D548844209D1012198
:102B5000C804FFF74DFF00214FF40020FFF748FFA6
:102B600063E0D048844209D101210805FFF740FF06
:102B700000214FF48010FFF73BFF56E0CA48844223
:102B800009D101214805FFF733FF00214FF4001060
:102B9000FFF72EFF49E0C548844208D101214020BB
:102BA000FFF733FF00214020FFF72FFF3DE0C04833
:102BB000844208D101218020FFF727FF00218020D7
:102BC000FFF723FF31E0BB48844208D10121801583
:102BD000FFF71BFF0021A015FFF717FF25E0B64800
:102BE000844209D101210804FFF702FF00214FF4BC
:102BF0008030FFF7FDFE18E0B048844209D1012182
:102C00004804FFF7F5FE00214FF40030FFF7F0FE17
:102C10000BE0AB48844208D101218804FFF7E8FEAD
:102C200000214FF48020FFF7E3FE10BD0022028850
:102C3000944B98420ED0994B98420BD0B0F1804FF4
:102C400008D0914B984205D0904B984202D0904BBF
:102C5000984204D14FF68F731A404B881A438D4B1C
:102C6000984207D08C4B984204D04FF6FF431A404D
:102C7000CB881A4302808B8883850B880385814B20
:102C800098420BD0854B984208D08B4B984205D088
:102C90008A4B984202D08A4B984201D10B7A038624
:102CA00001238382704770B5002400220023058C25
:102CB0004FF6FE7635400584028C8388048B4FF6F0
:102CC0008F752C40B51E2C400D882C43751E2A4054
:102CD0000D892A434D882A436A4DA8420BD06F4D77
:102CE000A84208D0744DA84205D0744DA84202D025
:102CF000734DA84213D14FF6F7752A404D892A43E8
:102D00004FF6FB752A408D882A434FF6FF652B400E
:102D10004FF6FF552B408D892B43CD892B43838064
:102D20000483CD888586028470BD70B5002400229E
:102D30000023058C4FF6EF7635400584028C83889E
:102D4000048B48F6FF752C404FF6FF452C400D884C
:102D50004FF6FF7606EA05252C434FF6DF752A402D
:102D60000D8906EA05152A434D8806EA05152A430A
:102D7000444DA84202D0494DA8421DD14FF67F755F
:102D80002A404D894FF6FF7606EA05152A434FF68D
:102D9000BF752A408D8806EA05152A434FF6FF3590
:102DA0002B404FF2FF752B408D8906EA85052B439A
:102DB000CD8906EA85052B4383800483CD8805876A
:102DC000028470BD70B5002400220023058C4FF6EC
:102DD000FF6635400584028C8388848B4FF68F759F
:102DE0002C404FF6FC752C400D882C434FF6FF55B8
:102DF0002A400D894FF6FF7606EA05252A434D88BD
:102E000006EA05252A431F4DA84202D0234DA842B9
:102E10001DD14FF2FF752A404D894FF6FF7606EA25
:102E200005252A434FF6FF352A408D8806EA0525F9
:102E30002A434EF6FF752B404DF6FF752B408D89CA
:102E400006EA05152B43CD8906EA05152B43838039
:102E50008483CD888587028470BD70B500220023ED
:102E60000024058C4EF6FF7635400584038C84885B
:102E7000828B48F6FF752A404FF6FF452A400D88A1
:102E800020E00000002C0140000400400008004049
:102E9000000C0040001000400014004000340140CD
:102EA000004C014000500140005401400018004017
:102EB000001C004000200040004001400044014050
:102EC000004801404FF6FF7606EA05252A434DF6F5
:102ED000FF752B400D8906EA05352B434D8806EA20
:102EE00005352B43FA4DA84202D0FA4DA84208D12D
:102EF0004BF6FF752C408D894FF6FF7606EA851557
:102F00002C4384808283CD88A0F84050038470BD18
:102F1000828B4FF2FF331A408283828B4FF6FF730E
:102F200003EA01231A4382837047F0B50C46154625
:102F3000002200210026078C4EF6FF7C07EA0C07D2
:102F40000784828B018C4FF6FF7707EA043640F640
:102F5000FF473A404FF6FF7707EA05273A434FF617
:102F6000FF7707EA03373A43D94FB8420ED0D94F1B
:102F7000B8420BD0B0F1804F08D0D74FB84205D03F
:102F8000D64FB84202D0D64FB84206D14DF6FF77A1
:102F9000394046F48057394305E047F6FF5739403A
:102FA00044F48057394382830184F0BD828B4FF60D
:102FB000F3731A408283828B0A4382837047F0B591
:102FC0000C461546002200210026078C4FF6FF6CA8
:102FD00007EA0C070784828B018C4FF6FF7707EA1C
:102FE00004264FF60C773A404FF6FF7707EA0317AF
:102FF0002F433A43B64FB8420ED0B64FB8420BD02B
:10300000B0F1804F08D0B44FB84205D0B34FB842AA
:1030100002D0B34FB84206D14FF6FF57394046F4BD
:103020008077394305E04FF2FF57394044F4807709
:10303000394382830184F0BD028B4FF2FF331A4083
:103040000283028B4FF6FF7303EA01231A430283C4
:103050007047F0B50C461546002200210026078C6B
:103060004FF6EF7C07EA0C070784028B018C4FF6C2
:10307000FF7707EA041640F6FF473A404FF6FF771E
:1030800007EA03373A434FF6FF7707EA05273A4343
:103090008F4FB8420ED08F4FB8420BD0B0F1804F57
:1030A00008D08D4FB84205D08C4FB84202D08C4F1B
:1030B000B84206D14FF6DF77394046F01007394362
:1030C00005E04FF65F77394044F01007394302833B
:1030D0000184F0BD028B4FF6F3731A400283028B1A
:1030E0000A4302837047F0B50C46154600220021C2
:1030F000068C4FF6FE773E400684028B018C4FF61D
:103100000C7632407E1C06EA03162E433243704E84
:10311000B0420ED06F4EB0420BD0B0F1804F08D00D
:103120006D4EB04205D06D4EB04202D06C4EB042F2
:1031300006D14FF6FD76314044F00106314305E0FB
:103140004FF6F576314044F00106314302830184A5
:10315000F0BD70B505460C465D4885420ED05D4811
:1031600085420BD0B5F1804F08D05B48854205D031
:103170005A48854202D05A48854200D100E000BF3B
:10318000208850B92389A28861882846FFF7ABFFC1
:10319000E1882846FFF79EFF25E0208804280AD111
:1031A0002389A28861882846FFF753FFE1882846D3
:1031B000FFF742FF17E0208808280AD12389A28858
:1031C00061882846FFF7FBFEE1882846FFF7EEFE00
:1031D00009E02389A28861882846FFF7A6FEE188D6
:1031E0002846FFF795FE70BD2DE9F04105460C46D7
:1031F00000260127608808B9022600E00026A08882
:10320000012801D1022700E001272088A0B92389E5
:10321000A28861882846FFF766FFE1882846FFF705
:1032200059FF23893A4631462846FFF712FFE188C5
:103230002846FFF701FF13E02389A288618828460A
:10324000FFF707FFE1882846FFF7F6FE23893A4695
:1032500031462846FFF747FFE1882846FFF73AFF47
:10326000BDE8F0810A884B881A438B881A43CB88C3
:103270001A430B891A434B891A438B891A43A0F8C6
:10328000442070474FF6FF71818000210180C1808A
:103290004180017270470021018041808180C1809E
:1032A000018141818181C18170470021018041807C
:1032B000012181800021C1800181704700210180AE
:1032C00041808180C18001814181818170470000FE
:1032D000002C014000340140000400400008004080
:1032E000000C004021B1028842F00102028004E09B
:1032F00002884FF6FE731A400280704731B1B0F871
:10330000442042F40042A0F8442005E0B0F84420F4
:10331000C2F30E02A0F8442070471AB183890B4310
:10332000838102E083898B43838170478182704768
:1033300041EA0203A0F8483070471AB183890B4371
:10334000838102E083898B438381704701894FF633
:10335000F8721140018170470A46002101894FF639
:103360008F73194011430181704730B504460D46F3
:1033700029462046FFF7F0FF208940F00700208112
:1033800030BD2DE9F04104460D4616461F46602D1E
:1033900006D13B46012231462046FFF75AFE05E0A2
:1033A0003B46012231462046FFF79DFE2946204636
:1033B000FFF7D2FF208940F007002081BDE8F081AF
:1033C00030B50C4600210189C9B24FF6FF7505EAF8
:1033D0000325154325432943018130BD2DE9F041E3
:1033E00005460E4617469846002443463A4631465F
:1033F0002846FFF7E5FF2C894FF6F870044044F0AB
:1034000007044FF68F70044044F070042C81BDE82F
:10341000F081F0B504460D4616461F463B4632463F
:1034200029462046FFF7CCFF208940F480402081C8
:10343000F0BD0185828270470A46002101884FF65F
:103440008F731940114301807047F0B50C46154643
:103450001E460021002200230189028B038C4FF6B7
:10346000F877394021434FF6FC473A4040F20117C4
:103470003A434FF6DD773B404FF6FF7707EA0617F2
:103480002F433B43018102830384F0BD0A460021A0
:10349000018B4FF68F7319401143018370470A4621
:1034A0000021018B48F6FF7319404FF6FF7303EAC2
:1034B00002231943018370470A460021818B4FF68E
:1034C0008F7319401143818370470A460021818B15
:1034D00048F6FF7319404FF6FF7303EA02231943BE
:1034E0008183704721B1028842F08002028004E0AB
:1034F00002884FF67F731A400280704721B182889C
:1035000042F00402828004E082884FF6FB731A4086
:103510008280704721B1828842F00802828004E0F4
:1035200082884FF6F7731A408280704721B18288F3
:1035300042F00102828004E082884FF6FE731A4056
:10354000828070470A460021018B4FF6F7731940BD
:103550001143018370470A460021018B4FF2FF732C
:1035600019404FF6FF7303EA0223194301837047A2
:103570000A460021818B4FF6F7731940114381836E
:1035800070470A460021818B4FF2FF7319404FF6B6
:10359000FF7303EA02231943818370470A4600211F
:1035A000018B4FF6FB7319401143018370470A46A4
:1035B0000021018B4FF6FF3319404FF6FF7303EAEA
:1035C00002231943018370470A460021818B4FF67D
:1035D000FB7319401143818370470A460021818B98
:1035E0004FF6FF3319404FF6FF7303EA02231943E6
:1035F000818370470A460021018B4FF67F73194083
:103600001143018370470A460021018BC1F30E016B
:103610004FF6FF7303EA02231943018370470A46FA
:103620000021818B4FF67F731940114381837047CE
:103630000A460021818BC1F30E014FF6FF7303EAA6
:1036400002231943818370470A460021018C4FF6FB
:10365000FD7319401143018470470A460021018C13
:103660004FF6F77319401143018470470A46002151
:10367000018C4FF6DF7319404FF6FF7303EA021314
:103680001943018470470A460021018C4FF67F736D
:1036900019404FF6FF7303EA021319430184704780
:1036A0000A460021018C4FF6FF5319404FF6FF7375
:1036B00003EA02231943018470470A460021018C62
:1036C0004FF2FF7319404FF6FF7303EA02231943C9
:1036D000018470470A460021018C4DF6FF731940A2
:1036E0004FF6FF7303EA023319430184704730B584
:1036F000002301248C40A3B2048C9C430484048CDA
:1037000002FA01F5ADB22C43048430BD30B500237C
:1037100004248C40A3B2048C9C430484048C02FADD
:1037200001F5ADB22C43048430BD70B503460020D2
:1037300000241846183001258D40ACB21D8CA543DD
:103740001D8409B1082909D100EB6100056825F045
:10375000700505600568154305600EE00D1FC5F393
:103760004E052844056825F4E045056005684FF6D8
:10377000FF7606EA02263543056070BD21B1028856
:1037800042F00202028004E002884FF6FD731A4004
:103790000280704721B1028842F00402028004E0F6
:1037A00002884FF6FB731A400280704721B182886D
:1037B00042F08002828004E082884FF67F731A40D4
:1037C0008280704702884FF6F7731A4002800288A1
:1037D0000A430280704782884FF68F731A408280B6
:1037E00082880A438280704702894FF6F8731A4034
:1037F000028102890A430281704702894FF67F7372
:103800001A40028102890A4302817047818470470D
:10381000818570478186704701877047818770472F
:10382000A0F84010704702884FF6FF431A4002800C
:1038300002880A43028070470146888E704701461D
:10384000088F70470146888F70470146B1F84000E5
:1038500070470146888C70470146088D70470246C4
:103860000020138A0B400BB1012000E000207047BC
:10387000CA430282704730B502460020002300246C
:10388000158A05EA0103958905EA010413B10CB113
:10389000012000E0002030BDCA43028270470000D2
:1038A00010B50446BE48844208D101218014FFF7B8
:1038B0009FF80021A014FFF79BF816E0B948844256
:1038C00008D101210014FFF7A0F800212014FFF710
:1038D0009CF80AE0B448844207D10121C013FFF7E5
:1038E00094F80021E013FFF790F810BD10B5002206
:1038F000028802F441520B884C8823438C8823436E
:10390000CC8823430C8923434C8923438C8923434C
:10391000CC8923431A430280838B4FF2FF742340E8
:1039200083830B8A038210BD2DE9F04F85B00546D5
:103930000C464FF0000902274FF000084FF0010B32
:103940000026B246A88B4FF240010840A88302200F
:103950002884B5F81C90A068022801D100BF38E087
:10396000A08810B94FF0010B01E04FF0020B8D4819
:10397000854200D100E000BF6846FEF7B2FFDDF8E7
:1039800000A0E088B0F5007F0AD14FEA1A2000EBD2
:1039900080004000A168B0FBF1F0401D86B20BE052
:1039A0004FEA4B10BAFBF0F000EB80004000A1683A
:1039B000B0FBF1F0401D86B20A20B6FBF0F606F02F
:1039C0000108A6EB0800C0F34F074FF6FF7000EAAE
:1039D0000828022F01DBFF2F02DD02274FF000082D
:1039E000E08840EA080038432884A088A189084379
:1039F000618808432188084340F4006040EA0909CF
:103A0000A5F81C9005B0BDE8F08F00210180418031
:103A10008180C180018141818181C1810721018231
:103A200070470021018041808180C1800221816036
:103A300000218181704721B1028842F0400202805A
:103A400004E002884FF6BF731A400280704721B12C
:103A5000828B42F48062828304E0828B4FF6FF33D4
:103A60001A408283704730B5002400230C110125D1
:103A7000A540ABB21AB185881D43858002E08588D8
:103A80009D43858030BD1AB183880B43838002E05B
:103A900083888B4383807047818170470146888982
:103AA00070474FF6FF62914204D0028842F4807260
:103AB000028004E002884FF6FF631A4002807047DC
:103AC00021B1828842F00402828004E082884FF6AD
:103AD000FB731A408280704702884FF2FF731A40CE
:103AE000028002880A4302807047018841F48051B5
:103AF0000180704721B1028842F40052028004E044
:103B000002884DF6FF731A4002807047024600207B
:103B1000012901D0108B00E0908A70470146088A85
:103B20007047B1F5804F04D1028842F48042028090
:103B300004E002884BF6FF731A4002807047024689
:103B4000002013890B400BB1012000E000207047DA
:103B5000CA4302817047F0B50246002000240023CA
:103B6000002501F00F070126BE40B4B20B1101265B
:103B70009E40B3B2968806EA03051689264016B120
:103B80000DB1012000E00020F0BD10B5002201F0D1
:103B90000F040123A3409AB2D343038110BD000058
:103BA0000030014000380040003C00400146002049
:103BB000FE4A106800F03800084310607047FB4967
:103BC000096821F00801F94A1160114609680143AA
:103BD00011607047F549096821F01001F34A11603E
:103BE00011460968014311607047F148EF49486088
:103BF000F04848607047EE48EC494860ED4848603E
:103C00007047EA48006940F08000E8490861704761
:103C1000E648006940F08000E449086170470420EC
:103C2000E249C96801F0010109B101200EE0DF4954
:103C3000C96801F0040109B1022007E0DB49C96845
:103C400001F0100109B1032000E00420704700B525
:103C500002460423FFF7E3FF034603E0FFF7DFFF1D
:103C60000346521E012B01D1002AF7D102B90523C8
:103C7000184600BD30B5044604254FF43020FFF748
:103C8000E6FF0546042D17D1C848006940F0020040
:103C9000C649086108464461006940F04000086177
:103CA0004FF43020FFF7D3FF0546C048006941F6C6
:103CB000FD710840BD490861284630BD10B5042497
:103CC0004FF43020FFF7C3FF0446042C16D1B74849
:103CD000006940F00400B54908610846006940F0F9
:103CE000400008614FF43020FFF7B1FF0446AF48B1
:103CF000006941F6FB710840AC490861204610BDDF
:103D000000B502460423FFF78AFF034603E0FFF7EE
:103D100086FF0346521E012B01D1002AF7D102B9BA
:103D20000523184600BD10B504244FF43020FFF7DA
:103D3000E7FF0446042C16D19C48006940F00400BB
:103D40009A4908610846006940F0400008614FF454
:103D50003020FFF7D5FF04469448006941F6FB7117
:103D6000084092490861204610BD00208F49C9696A
:103D700001F0020109B1012000E00020704730B5D8
:103D8000A5250424FFF7F1FF00B100254FF43020F2
:103D9000FFF75DFF0446042C3AD1854883498860CB
:103DA000844888600846006940F0200008610846A1
:103DB000006940F0400008614FF43020FFF747FFF2
:103DC0000446042C1BD17948006941F6DF71084094
:103DD000764908610846006940F01000086176489D
:103DE0000580E002FFF733FF0446052C10D06F4832
:103DF000006941F6EF7108406C49086108E0052C44
:103E000006D06A48006941F6EF71084067490861C9
:103E1000204630BD78B506460C46042500200090AB
:103E2000E802FFF714FF0546042D24D15F4800691E
:103E300040F001005D4908613480E802FFF707FFA8
:103E40000546042D10D1B01C0090200C009908806C
:103E5000E802FFF7FCFE05465448006941F6FE7192
:103E600008405249086106E05048006941F6FE7179
:103E700008404E490861284678BD70B504460D4695
:103E80000426F002FFF7E3FE0646042E11D1474850
:103E9000006940F00100454908612580F002FFF704
:103EA000D6FE06464148006941F6FE7108403F498A
:103EB0000861304670BD70B505460E460424E00228
:103EC000FFF7C5FE0446042C17D1394837498860EE
:103ED000384888600846006940F0100008612E806C
:103EE000E002FFF7B4FE0446052C06D02F48006917
:103EF00041F6EF7108402D490861204670BD2DE95B
:103F0000F04304464FF6FF763746B046B1460425E7
:103F1000E443E6B2C4F30727C4F307484FEA146941
:103F2000E802FFF794FE0546042D49D120481F49B9
:103F30008860204888600846006940F010000861E9
:103F4000FF2E06D01C4808300680E802FFF77FFEEF
:103F50000546042D08D1FF2F06D017480A300780E8
:103F6000E802FFF774FE0546042D0AD1B8F1FF0FF1
:103F700007D011480C30A0F80080E802FFF767FE78
:103F80000546042D0AD1B9F1FF0F07D00A480E30BB
:103F9000A0F80090E802FFF75AFE0546052D0FD065
:103FA0000248006941F6EF71084007E00020024036
:103FB00023016745AB89EFCD00F8FF1F6649086113
:103FC0002846BDE8F08330B5054604244FF4302080
:103FD000FFF73DFE0446042C41D160485E498860ED
:103FE0005F4888600846006940F020000861084684
:103FF000006940F0400008614FF43020FFF727FED1
:104000000446042C22D15448006941F6DF7108406F
:10401000514908610846006940F0100008611DB16F
:1040200000205049088002E0A5204E4908804FF446
:104030003020FFF70CFE0446052C10D046480069DE
:1040400041F6EF7108404449086108E0052C06D0AC
:104050004148006941F6DF7108403F490861204648
:1040600030BDF0B505460E46174604243B483A4994
:1040700088603B488860E002FFF7E9FD0446042CB5
:1040800019D13548006940F010003349086147F004
:10409000F800304328433349891C0880E002FFF7C9
:1040A000D6FD0446052C06D02B48006941F6EF7179
:1040B0000840294908612046F0BD2748C0698008AA
:1040C00070472548006A704700202349096801F0BD
:1040D000200109B1012000E00020704729B11E4AEB
:1040E000126902431C4B1A6104E01B4A12698243A5
:1040F000194B1A61704701460020012908D1164A60
:10410000D26902F001020AB1012008E0002006E0B5
:10411000114AD2680A400AB1012000E0002070472D
:104120000D49C860704704200B49C96801F00101BE
:1041300009B101200EE00849C96801F0040109B184
:10414000022007E00449C96801F0100109B1032009
:1041500000E0042070470000002002402301674572
:10416000AB89EFCD00F8FF1F0CB500200190009047
:104170006C48006840F480306A49086000BF6948B4
:10418000006800F4003000900198401C01900098F5
:1041900018B90198B0F5A06FF1D16248006800F439
:1041A000003010B10120009001E000200090009844
:1041B000012843D15C48006840F010005A4908606B
:1041C0000846006820F0030008600846006840F0D8
:1041D00002000860534840685249486008464068F9
:1041E00048600846406840F480604860084640687F
:1041F00020F47C1048600846406840F4E8104860AD
:104200000846006840F08070086000BF45480068BC
:1042100000F000700028F9D04248406820F0030008
:10422000404948600846406840F00200486000BFCE
:104230003C48406800F00C000828F9D10CBD10B5CE
:10424000FFF792FF10BD10B53648006840F001003E
:10425000344908600846406834490840314948609C
:1042600008460068324908402E4908600846006840
:1042700020F4802008600846406820F4FE00486072
:104280004FF41F008860FFF7DAFF4FF00060294904
:10429000086010BD10B5002100200022214B5B6892
:1042A00003F00C0121B1042906D0082928D107E028
:1042B000214B224C236027E01F4B204C236023E03E
:1042C000184B5B6803F47010164B5B6803F4803284
:1042D000022303EB904022B9194B4343174C236050
:1042E0000DE0104B5B6803F4003323B1144B4343E0
:1042F000124C236003E0104B4343104C236003E057
:104300000D4B0E4C236000BF00BF064B5B68C3F330
:1043100003130C4CE15C094B1B68CB40074C23603A
:1043200010BD000000100240002002400000FFF815
:10433000FFFFF6FE08ED00E000127A0054000020B6
:1043400000093D0058000020064880470648004705
:10435000FEE7FEE7FEE7FEE7FEE7FEE7FEE7FEE735
:10436000FEE7FEE7474200083101000840EA01038A
:104370009B0703D009E008C9121F08C0042AFAD21B
:1043800003E011F8013B00F8013B521EF9D27047DF
:1043900030B504460020034600E05B1C934203D284
:1043A000E05CCD5C401BF8D030BD2DE9F05F0546E8
:1043B000002092469B4688460646814640241BE0E4
:1043C000284641464746224600F041F853465A46A1
:1043D000C01A914110D311461846224600F028F821
:1043E0002D1A67EB01084F4622460120002100F0FC
:1043F0001FF817EB00094E41201EA4F10104DFDC79
:10440000484631462A464346BDE8F09F064C074DD4
:1044100006E0E06840F0010394E807009847103494
:10442000AC42F6D3FBF788FE6049000880490008DB
:10443000202A04DB203A00FA02F100207047914064
:10444000C2F1200320FA03F3194390407047202A59
:1044500004DB203A21FA02F00021704721FA02F32E
:10446000D040C2F120029140084319467047000035
:104470000FB4084B10B504A902AA039800F01CF869
:10448000044602A9002000F042FA204610BC5DF864
:1044900014FB00000F49000802E008C8121F08C101
:1044A000002AFAD170477047002001E001C1121FB5
:1044B000002AFBD1704700002DE9FF4F8DB00F4659
:1044C0000546002606E025280BD0DDE90F129047AF
:1044D0006D1C761C28780028F5D111B03046BDE857
:1044E000F08F0024A246A1460122E94900E00443DE
:1044F00015F8013F203B02FA03F00842F7D1287873
:104500002A2810D06FF02F022878A0F13001092955
:1045100014D80AEB8A0102EB410144F0020400EBDB
:10452000010A6D1CF0E701CF5FEA000A03D544F4ED
:104530000054CAF1000A44F002046D1C28782E28A9
:1045400017D115F8010F44F004042A280ED06FF09B
:104550002F022878A0F1300109290AD809EB890136
:1045600002EB410100EB01096D1CF2E757F8049BD7
:104570006D1C28786C280FD006DC4C2817D06828D2
:104580000DD06A2814D104E0742810D07A280FD1F5
:104590000DE044F400140AE044F4801401E044F413
:1045A00040146978814202D104F580146D1C6D1CA1
:1045B00028786E281ED00CDC632830D004DC00285C
:1045C0008BD0582811D19FE0642867D069280CD17E
:1045D00064E073282DD004DC6F2872D0702804D1D9
:1045E00094E075286ED078286DD0DDE90F129047E1
:1045F000761C4BE1C4F30250022806D0032809D0F0
:10460000042801CF09D0066040E101CFF117C0E9CD
:1046100000613BE101CF068038E1067036E117F812
:10462000040B8DF8000000208DF80100EB460120FE
:1046300003E057F804BB4FF0FF3061074FF0000173
:1046400002D40DE008F10101884649450FDA8045A2
:10465000F8DB1BF808100029F4D108E008F101018B
:1046600088468142FADB1BF808100029F6D1DDE903
:104670000F23AAEB08008146214600F031F93044AF
:1046800000EB080604E0DDE90F121BF8010B904770
:10469000B8F10108F7D221464846F2E00A21C4F3F6
:1046A00002524FF0000B0891022A04D001CFC1172B
:1046B000032A09D00AE0FF1D27F00707F7E80201E7
:1046C00008E02CE01EE01FE000B2C117042A01D16F
:1046D00040B2C117021E71F1000206DA0023D0EBCE
:1046E000030063EB01012D2202E0220504D52B22F9
:1046F0008DF82420012203E0E20701D02022F7E711
:10470000904653E00A210BE0102109E010214FF000
:10471000000B44F004044FF00809089103E008215D
:104720004FF0000B0891C4F30252022A04D001CFCB
:104730000021032A06D006E0FF1D27F00707F7E84F
:10474000020103E080B2042A00D1C0B24FF0000899
:1047500022072BD52A78702A07D0DDF820C08CF0EC
:10476000100C5CEA0B0C05D00EE040228DF82420E2
:10477000012208E050EA010306D030238DF82430EE
:104780008DF8252002229046089B83F0080353EA07
:104790000B030BD150EA010201D1620706D530228A
:1047A0008DF824204FF00108A9F101092A78582A30
:1047B00004D038A20B9208AA0A920BE03AA2F9E7B9
:1047C0005B46089AFFF7F1FD0B9B9B5C0A9A521E11
:1047D0000A92137050EA0102F2D10A98ADEB000080
:1047E00000F1200B600702D524F4803401E04FF083
:1047F0000109D94502DDA9EB0B0000E0002000EB28
:104800000B0141440890AAEB010AE00306D4DDE95C
:104810000F232146504600F063F806444FF000098C
:1048200008E009A911F80900DDE90F12904709F124
:104830000109761CC145F4DBE0030CD5DDE90F234B
:104840002146504600F04CF8064404E0DDE90F1222
:1048500030209047761C0899481E08900029F5DC06
:1048600008E00A980A990078491C0A91DDE90F12BC
:104870009047761CBBF10001ABF1010BF1DC214646
:104880005046DDE90F2300F019F806446D1C21E6BF
:104890000928010030313233343536373839616216
:1048A00063646566000000003031323334353637DA
:1048B0003839414243444546000000002DE9F041AB
:1048C000044600251E461746880404D405E03946F0
:1048D0002020B0476D1C641EF9D52846BDE8F08144
:1048E0002DE9F041044600251E469046C80301D537
:1048F000302700E02027880404D505E041463846EB
:10490000B0476D1C641EF9D52846BDE8F0810A68E1
:10491000531C0B6010707047456E746572204944DB
:10492000206F66206D656D62657220636172642020
:10493000746F2072656D6F766520283520627974FA
:10494000657320696E2068657861646563696D616F
:104950006C20666F726D6174293A200A00000000B5
:10496000804900080000002068000000984400080A
:10497000E84900086800002048040000A844000836
:104980000000000000000000000000000000000027
:104990000000530835147A000030303030313233A3
:1049A0003435363738392A30230000000000000043
:1049B00000000000000000000000000000000000F7
:1049C00000010203040102030406070809020406A9
:1049D0000800000000A24A040000000000000000DF
:0849E0000102030406070809A7
:0400000508000131BD
:00000001FF
